:060000000A128A110C280F
:10000800FE00030EF1000A08F2000A128A15A72D55
:100018000A128A110F280A128A11FE270A128A1157
:10002800FA008313203084003B300A128A15B32467
:100038000A128A11F90183010A128A11D42B831238
:100048000313CA0010303206031D2B282C287328EE
:100058000F30AE000030AF00AC01AD01AA01AB011A
:10006800B501B601A801A901FF30C7004708CA00B9
:100078004430BB008630BC008030C7004708BD0054
:100088000A128A153E250A128A11013083120313B7
:10009800BB008730BC00C030C7004708BD000A124B
:1000A8008A153E250A128A11C83083120313C70025
:1000B8004708C5003A300A128A15E3240A128A1141
:1000C800663083120313BB008630BC00D030C700F3
:1000D8004708BD000A128A153E250A128A112A30DD
:1000E800831203134A0603197A287B28E22823304F
:1000F8004A06031980288128E2284A0A0319852814
:100108008628E2280130AA070318AB0A0030AB079B
:100118002B08803AFF0080307F02031D95280330AA
:100128002A02031898289928AE280A308312031344
:10013800C7004708F30036080A128A11E7250A1291
:100148008A11831203134A07C8004808B600A80199
:10015800A901E228831203132B08803AFF0080309C
:100168007F02031DB92803302A02031CBC28BD28BE
:10017800E228831203132B08803AFF0080307F02A5
:10018800031DC82805302A020318CB28CC28E228EA
:100198000A3083120313C7004708F30035080A1210
:1001A8008A11E7250A128A11831203134A07C80025
:1001B8004808B5000130A8000030A9002A30831291
:1001C80003134A06031DE928EA2822292B08803A46
:1001D800FF0080307F02031DF32803302A02031832
:1001E800F628F728FD2883120313B601AA01AB01EC
:1001F8002229831203132B08803AFF0080307F02E4
:10020800031D082903302A02031C0B290C29222963
:10021800831203132B08803AFF0080307F02031DEE
:10022800172905302A0203181A291B2922298312A3
:100238000313B5010230AA000030AB00233083124B
:1002480003134A06031D29292A2937290A128A1164
:10025800F1270A128A11053083120313C7004708D1
:10026800B300071512150130AE070318AF0A0030A6
:10027800AF0710302E062F04031D43294429CA292D
:10028800AE01AF012C082D0403194B294D2901306B
:100298004E290030C700C8014708AC004808AD0027
:1002A800C930C7004708C5000A30F3000030F40021
:1002B8003608C800C9014808F5004908F6000A12BE
:1002C8008A1143250A128A117308303E0A128A15C8
:1002D800E3240A128A11CA3083120313C70047089D
:1002E800C5000A30BF000030C0003608C800C90188
:1002F8004808C1004908C2000A128A15DE250A12F8
:100308008A11831203133F08303E0A128A15E32428
:100318000A128A11C63083120313C7004708C500A2
:100328000A30F3000030F4003508C800C901480855
:10033800F5004908F6000A128A1143250A128A11A3
:100348007308303E0A128A15E3240A128A11C7304C
:1003580083120313C7004708C5000A30BF000030E6
:10036800C0003508C800C9014808C1004908C200D2
:100378000A128A15DE250A128A11831203133F080E
:10038800303E0A128A15E3240A128A1183120313D3
:100398002C082D040319D129D229FC29EF290E3064
:1003A800BB008630BC00C930C7004708BD000A1230
:1003B8008A153E250A128A11FC290E30BB008630A8
:1003C800BC00C630C7004708BD000A128A153E2582
:1003D8000A128A11FC292908003A0319F429FC2970
:1003E8002808003A0319D329013A0319E129FC29FD
:1003F800080083120313CA0011303206031D052AB0
:10040800062A4A2AFF30C7004708CA00B4010F303D
:10041800A6000030A700A401A501A201A3019630FF
:10042800BB008630BC008030C7004708BD000A12F8
:100438008A153E250A128A118B3083120313C700CE
:100448004708C500DF300A128A15E3240A128A1108
:10045800D93083120313BB008630BC00C030C700FC
:100468004708BD000A128A153E250A128A1166300D
:1004780083120313BB008630BC00D030C700470886
:10048800BD000A128A153E250A128A112A308312E3
:1004980003134A060319512A522A832A23304A068B
:1004A8000319572A582A832A4A0A03195C2A5D2AFB
:1004B800832A0130A2070318A30A0030A3072308E0
:1004C800803AFF0080307F02031D6C2A043022022C
:1004D80003186F2A702A3D2B0A3083120313C700B2
:1004E8004708F30034080A128A11E7250A128A110C
:1004F800831203134A07C8004808B4003D2B2A306A
:100508004A06031D882A892A8D2AB401A201A3015B
:100518003D2B23304A06031D922A932A3D2B0A12AB
:100528008A11F1270A128A11003083120313BB00C3
:100538008630BC008030C7004708BD000A128A1503
:100548003E250A128A11B23083120313BB0086308B
:10055800BC009030C7004708BD000A128A153E2526
:100568000A128A11B43083120313C7004708B60071
:100578001215262B9A30C7004708C5006430F300CF
:100588000030F4003608C800C9014808F5004908D9
:10059800F6000A128A1143250A128A117308303E9E
:1005A8000A128A15E3240A128A119B308312031354
:1005B800C7004708C5000A30BF000030C0000A3035
:1005C800F3000030F4003608C800C9014808F500F7
:1005D8004908F6000A128A1143250A128A1174087A
:1005E80083120313C2007308C1000A128A15DE259C
:1005F8000A128A11831203133F08303E0A128A1521
:10060800E3240A128A119C3083120313C700470897
:10061800C5000A30BF000030C0003608C800C90154
:100628004808C1004908C2000A128A15DE250A12C4
:100638008A11831203133F08303E0A128A15E324F5
:100648000A128A11831203133608031D2C2B2D2B33
:10065800BE2A12110A128A11F1270A128A110A30C7
:1006680083120313C7004708B1001030C7004708BA
:10067800B2006430F3000030F4008312031334082E
:10068800C700C8014708F5004808F6000A128A1191
:1006980043250A128A117308303E83120313C900D6
:1006A8004908B7000A30BF000030C0000A30F30024
:1006B8000030F4003408C700C8014708F5004808AE
:1006C800F6000A128A1143250A128A117408831245
:1006D8000313C2007308C1000A128A15DE250A1224
:1006E8008A11831203133F08303EC9004908B80035
:1006F8000A30BF000030C0003408C700C8014708EE
:10070800C1004808C2000A128A15DE250A128A1199
:10071800831203133F08303EC9004908B900BA01E3
:100728000130A6070318A70A0030A70710302606CD
:100738002704031DA02BA12BBE2BA601A70124086B
:1007480025040319A82BAA2B0130AB2B0030C700B6
:10075800C8014708A4004808A5003730BB0000308E
:10076800BC00C830C7004708BD000A128A153E25DC
:100778000A128A1183120313240825040319C52BAE
:10078800C62BD32B0D30BB008630BC00C830C70049
:100798004708BD000A128A153E250A128A11080068
:1007A8000A128A15F8240A128A110A128A15392699
:1007B8000A128A110A128A11F1270A128A1183125F
:1007C8000313B301B30A01300A128A1519250A1254
:1007D8008A1183120313CC004C08CF000230330671
:1007E8000319F72BF82B152D033033060319FD2BAE
:1007F800FE2B152D04303306031D032C042C062C68
:10080800152D152D4F03031D0A2C0B2C412C0530DB
:1008180033060319102C112C412C0230CC004C0843
:10082800B3001030CC004C08B2000A128A11F1272C
:100838000A128A11223083120313BB008630BC00CF
:10084800C030CC004C08BD000A128A153E250A1299
:100858008A114D3083120313CE001930CD004F306A
:10086800CC00CC0B352CCD0B352CCE0B352C0A12ED
:100878008A11F1270A128A11152D02304F06031D1D
:10088800462C472C562C0530330603194C2C4D2C7E
:10089800562C0330CC004C08B3001030CC004C0868
:1008A800B2003B2C03304F06031D5B2C5C2C692CDB
:1008B8000430CC004C08B3000930CC004C08B1001F
:1008C8001130CC004C08B2003B2C04304F06031DFD
:1008D8006E2C6F2CB82C3303031D732C742C8B2CAB
:1008E800B5011E30CC004C08B60012150715AF3004
:1008F800CC004C08B0000A128A11F1270A128A119A
:10090800053083120313CC004C08B300152D0530B5
:100918003306031D902C912CAC2CAF303006031DF0
:10092800962C972CAC2C36081E3ECC004C08B600F2
:100938003C303602031CA12CA22C052C0130CC0023
:100948004C08B5073608C43ECC004C08B600152D37
:1009580007303306031DB12CB22C052CB00108302A
:10096800CC004C08B300152D05304F06031DBD2CD7
:10097800BE2CC32C0730CC004C08B300152D063014
:100988004F06031DC82CC92C052C0630CC004C087A
:10099800B3003B2C0A128A11B4270A128A11392D86
:1009A8004F080A128A1123200A128A11392D4F087A
:1009B8000A128A1123200A128A11392D09303106A8
:1009C800031DE72CE82CF72C4F080A128A11FD2189
:1009D8000A128A110A30831203133106031DF52CFB
:1009E800F62C392DE72B0A303106031DFC2CFD2C83
:1009F800392D4F080A128A1123200A128A11392D1B
:100A08000A128A15FB260A128A11392D12110711AA
:100A1800B301B30A392D12110711392D1215071513
:100A2800042D831203133308CC00CD014D08003A7E
:100A380003191F2D392D4C08013A0319CE2C033AFE
:100A48000319D42C013A0319DB2C073A0319E22CB9
:100A5800013A0319042D033A03190A2D013A03191F
:100A68000F2D0F3A0319122D392D0F30831203134E
:100A7800CC004C08B200E72B0A128A110C2883120A
:100A88000313BC01F41F492D4A2D512DF309F40914
:100A9800F30A0319F40ABC01BC0AF61F542D552D9C
:100AA8005E2DF509F609F50A0319F60A0130F70073
:100AB8007708BC06BD01BE01730874040319652DCF
:100AC800662D9D2DBB01BB0A742D01300310F30D5B
:100AD800F40DFF3E031D6A2D0130F7007708BB07B0
:100AE800F41F772D782D692D01300310BD0DBE0D33
:100AF800FF3E031D792D74087602031D852D7308AA
:100B08007502031C882D892D902D7308F502740831
:100B1800031CF603F6023D1401300310F40CF30C29
:100B2800FF3E031D912D0130BB02031D9C2D9D2D01
:100B3800782D3C080319A12DA22DA72DBD09BE09AA
:100B4800BD0A0319BE0A3E08F4003D08F300080078
:100B5800831203138619B12DB22DE62D1211071138
:100B680087140A128A11F1270A128A115530831242
:100B78000313BB008630BC00C030F8007808BD0005
:100B88000A128A153E250A128A1187308312031326
:100B9800BB008630BC009030F8007808BD000A120F
:100BA8008A153E250A128A1183120313861DDD2D2C
:100BB800DE2DD82D8710121107150A128A11F12778
:100BC8000A128A110800F600F501761CEC2DED2DAD
:100BD800F12D7308F4007408F5070310F30D0310E2
:100BE800F60C7608031DF92DFA2DE92D7508080075
:100C0000203420345034723465342D344834653403
:100C10006134743469346E346734203420342034C1
:100C200000342034203450346F34773465347234D7
:100C300069346E34673420344F346E3420342034B9
:100C400020340034203450346F34773465347234B7
:100C5000203420343D342034393430343034573467
:100C600020342034003420344D34693463347234F9
:100C70006F34773461347634653420344F347634CD
:100C800065346E34203400345334453454342034C5
:100C9000543449344D344534203428344D344D34A3
:100CA0003A34533453342934003444344F344F34B9
:100CB000523420345334543441345434553453343E
:100CC0003A344F34503445344E3400342A343A34B4
:100CD00043344C34453441345234203420342334AA
:100CE0003A3445344E34543445345234003420348C
:100CF00034342E34533474346134723474342F34B5
:100D000052346534733475346D3465340034503482
:100D10006C346534613473346534203443344C347A
:100D20004F34533445342134213400342034533487
:100D3000453454342034543445344D345034203404
:100D40002834203443342934003433342E344334AB
:100D50006F346E34763465346334743469346F348C
:100D60006E340034543469346D3465342034523474
:100D700065346D342E343D340034543449344D34AC
:100D80004534203455345034213421340034203457
:100D9000543449344D34453420343D342034003407
:100DA000203435342E345034613475347334653422
:100DB00000342034543445344D34503420343D34E0
:100DC000003432342E344734723469346C346C3429
:100DD000003431342E344D346934633472346F341A
:100DE0000034203436342E34533474346F34703439
:100DF000003434342E3453347434613472347434E3
:100E00000034543449344D3445342D3420340034C6
:100E10008312031388110815881408146430F30032
:100E20000030F400FF30F3070318F40AFF30F40732
:100E3000730A031D1F2F740A031D1F2F202F122F4B
:100E4000831203130618252F262F282F0130B32FC6
:100E500086182B2F2C2F2E2F0230B32F0619312F4F
:100E6000322F342F0330B32F88150811881408143B
:100E70006430F3000030F400FF30F3070318F40A85
:100E8000FF30F407730A031D492F740A031D492F0D
:100E90004A2F3C2F8312031306184F2F502F522F27
:100EA0000430B32F8618552F562F582F0530B32FE7
:100EB00006195B2F5C2F5E2F0630B32F881508159F
:100EC000881008146430F3000030F400FF30F3079A
:100ED0000318F40AFF30F407730A031D732F740A12
:100EE000031D732F742F662F831203130618792F97
:100EF0007A2F7C2F0730B32F86187F2F802F822FD9
:100F00000830B32F0619852F862F882F0930B32F6D
:100F100088150815881408106430F3000030F400B8
:100F2000FF30F3070318F40AFF30F407730A031DB8
:100F30009D2F740A031D9D2F9E2F902F8312031344
:100F40000618A32FA42FA62F2A30B32F8618A92F57
:100F5000AA2FAC2F0030B32F0619AF2FB02FB22F0E
:100F60002330B32FFF300800E93083120313BB0096
:100F70008630BC008030F7007708BD000A128A1561
:100F80003E250A128A11E13083120313BB0086301A
:100F9000BC00C030F7007708BD000A128A153E2554
:100FA0000A128A11A53083120313BB008630BC00DD
:100FB0009030F7007708BD000A128A153E250A1204
:100FC0008A11F93083120313BB008630BC00D03085
:100FD000F7007708BD000A128A153E250A128A1109
:100FE0000800F30101300A128A1571250A128A11CC
:0E0FF000A630F700F70BFA2F000008000134BE
:10100000FF1B0A2883137F1883170008840A03191B
:10101000FF0A08007F087F398A000408840A031940
:04102000FF0A820041
:1019660064008001840A0406031900340406B42CBA
:10197600831603138801091189100A128A159826FD
:101986000A128A1508008312031312149214FA30ED
:101996008316031392008C1483120313121108008A
:1019A600831603130608073886000808F0398800EE
:1019B6008113831203138815081588140814080068
:1019C60083120313C600F30145080A128A1571250E
:1019D6000A128A15F301F30A8312031346080A1240
:1019E6008A1571250A128A1508000A128A15BB245F
:1019F6000A128A150A128A15D3240A128A150A129D
:101A06008A15C6240A128A150B178B178316031319
:101A1600071183120313071183160313871083120A
:101A2600031387108316031386150800F6000A129F
:101A36008A1108270A128A15F5007508F700760834
:101A4600031D262D272D292D77083D2D770A0319ED
:101A56002D2D2E2D352D7A080319322D332D352DAA
:101A6600FA01272D770A031D392D3A2D3C2DFA014F
:101A7600FA0AFF300800F301831203133D080A1225
:101A86008A1571250A128A15602DF301F30A3C089E
:101A9600FF003B0884000A128A1500200A128A15E4
:101AA6000A128A1571250A128A1501308312031348
:101AB600BB070318BC0A0030BC07831203133C089B
:101AC600FF003B0884000A128A1500200A128A15B4
:101AD600003A031D6F2D702D482D0800F60073186F
:101AE600752D792D8312031309157C2D831203138B
:101AF60009117608F03988008914A630F400F40B31
:101B0600822D000083120313891076080F39F40022
:101B160003300310F40DFF3E031D8C2D0310740DCE
:101B260088008914A630F400F40B972D0000831268
:101B3600031389101B30F5009E30F400F40BA12D21
:101B4600F50BA12D00000800831203138C1CAC2D8D
:101B5600AD2DD72D0130A0070318A10A0030A1072B
:101B6600E2302006043003192106031DBB2DBC2DCF
:101B7600D62DA001A10136080319C22DC32DC62DED
:101B86000130B602D62D3608031DCA2DCB2DD62D13
:101B960035080319CF2DD02DD62D0130B5023B3097
:101BA600F0007008B6008C1072088A00710E83006F
:101BB600FE0E7E0E090083120313C401C21FE42D1C
:101BC600E52DEC2DC109C209C10A0319C20AC401D7
:101BD600C40AC01FEF2DF02DF52DBF09C009BF0A9D
:101BE6000319C00A3F0840040319FA2DFB2D2A2EBB
:101BF600C301C30A092E01300310BF0DC00DFF3EFD
:101C0600031DFF2D0130F8007808C307C01F0C2EF6
:101C16000D2EFE2D40084202031D132E3F084102E1
:101C2600031C162E172E1D2E3F08C1024008031C4A
:101C3600C203C20201300310C00CBF0CFF3E031DDD
:101C46001E2E0130C302031D292E2A2E0D2E4408F6
:101C560003192E2E2F2E342EC109C209C10A0319CB
:101C6600C20A4208C0004108BF00080083120313DD
:101C7600CA014A08803EC7004708C500FF300A125D
:101C86008A15E3240A128A15013083120313C7004A
:101C96004708CA0710304A02031C522E532E3C2E08
:101CA6001130BB008630BC00C030C7004708BD00FD
:101CB6000A128A153E250A128A1533308312031337
:101CC600BB008630BC009030C7004708BD000A1232
:101CD6008A153E250A128A1583120313CB014B0877
:101CE600D03EC7004708C500FF300A128A15E32414
:101CF6000A128A15013083120313C7004708CB075F
:101D060010304B02031C882E892E722E4D30831202
:101D16000313C9001930C8004F30C700C70B912EF6
:101D2600C80B912EC90B912E0800C330F800CD3098
:101D3600F700F70B9C2EF80B9C2EF30133300A129A
:101D46008A1571250A128A151B30F8009E30F70095
:101D5600F70BAB2EF80BAB2E0000F30133300A1253
:101D66008A1571250A128A15A630F700F70BB92EC7
:101D76000000F30133300A128A1571250A128A15FA
:101D8600C42EC52E0000F30102300A128A157125F1
:101D96000A128A15A630F700F70BCF2E0000F301C2
:101DA60028300A128A1571250A128A15A630F700FC
:101DB600F70BDB2E0000F30101300A128A1571259C
:101DC6000A128A150430F8003D30F700F70BE92EA9
:101DD600F80BE92EEE2EF3010C300A128A15712546
:101DE6000A128A15A630F700F70BF72E0000080036
:101DF6000A128A11AC250A128A15C73083120313F8
:101E0600BB008630BC008030C7004708BD000A1200
:101E16008A153E250A128A15893083120313C700D4
:101E26004708C5000A30F3000030F4003508C80042
:101E3600C9014808F5004908F6000A128A11432527
:101E46000A128A157308303E0A128A15E3240A120A
:101E56008A158A3083120313C7004708C5000A3063
:101E6600BF000030C0003508C800C9014808C100DD
:101E76004908C2000A128A15DE250A128A1583123B
:101E860003133F08303E0A128A15E3240A128A1504
:101E96008B3083120313C7004708C5003A300A1275
:101EA6008A15E3240A128A158C3083120313C7009D
:101EB6004708C5000A30F3000030F4003608C800B1
:101EC600C9014808F5004908F6000A128A11432597
:101ED6000A128A157308303E0A128A15E3240A127A
:101EE6008A158D3083120313C7004708C5000A30D0
:101EF600BF000030C0003608C800C9014808C1004C
:101F06004908C2000A128A15DE250A128A158312AA
:101F160003133F08303E0A128A15E3240A128A1573
:101F2600773083120313BB008630BC00C030C70075
:101F36004708BD000A128A153E250A128A15D030B6
:101F460083120313BB008630BC009030C7004708DD
:101F5600BD000A128A153E250A128A15F13083122F
:101F66000313BB008630BC00D030C7004708BD0055
:101F76000A128A153E250A128A1583120313360899
:101F8600031DC62FC72FFF2F3508031DCB2FCC2FC0
:101F9600FF2F0A128A11F1270A128A15BD30831201
:101FA6000313BB008630BC00C030C7004708BD0025
:101FB6000A128A153E250A128A1583120313121174
:101FC600071187144D3083120313C9001930C80056
:101FD6004F30C700C70BED2FC80BED2FC90BED2FE8
:101FE6008312031387100A128A11F1270A128A151F
:0A1FF60083120313B301B30A0800BD
:02400E00FB3F76
:00000001FF
